{
  "contractName": "EldersRole",
  "abi": [
    {
      "constant": true,
      "inputs": [],
      "name": "ERR_ACCOUNT_NOT_ALLOWED",
      "outputs": [
        {
          "name": "",
          "type": "string"
        }
      ],
      "payable": false,
      "stateMutability": "view",
      "type": "function"
    },
    {
      "constant": true,
      "inputs": [],
      "name": "ERR_ROLE_OUT_OF_LIMIT",
      "outputs": [
        {
          "name": "",
          "type": "string"
        }
      ],
      "payable": false,
      "stateMutability": "view",
      "type": "function"
    },
    {
      "anonymous": false,
      "inputs": [
        {
          "indexed": false,
          "name": "",
          "type": "address"
        },
        {
          "indexed": false,
          "name": "",
          "type": "uint256"
        }
      ],
      "name": "Role",
      "type": "event"
    }
  ],
  "bytecode": "0x61022d610030600b82828239805160001a6073146000811461002057610022565bfe5b5030600052607381538281f3fe730000000000000000000000000000000000000000301460806040526004361061005d576000357c010000000000000000000000000000000000000000000000000000000090048063befa99cd14610062578063ca4bdb94146100e5575b600080fd5b61006a610168565b6040518080602001828103825283818151815260200191508051906020019080838360005b838110156100aa57808201518184015260208101905061008f565b50505050905090810190601f1680156100d75780820380516001836020036101000a031916815260200191505b509250505060405180910390f35b6100ed6101c8565b6040518080602001828103825283818151815260200191508051906020019080838360005b8381101561012d578082015181840152602081019050610112565b50505050905090810190601f16801561015a5780820380516001836020036101000a031916815260200191505b509250505060405180910390f35b606060405190810160405280602981526020017f6163636f756e7420646f6573206e6f7420686176652074686520726f6c65207081526020017f65726d697373696f6e000000000000000000000000000000000000000000000081525081565b6040805190810160405280601481526020017f726f6c65206973206f7574206f66206c696d69740000000000000000000000008152508156fea165627a7a72305820267830803991247ccf1d6369f3158bc81eed49b53cfb6ead64fc7e90002826c50029",
  "source": "/*\n * Copyright 2019 Ethereum Elders Team\n *\n * Permission is hereby granted, free of charge, to any person obtaining a copy of this\n * software and associated documentation files (the \"Software\"), to deal in the Software\n * without restriction, including without limitation the rights to use, copy, modify, merge,\n * publish, distribute, sublicense, and/or sell copies of the Software, and to permit persons to\n * whom the Software is furnished to do so, subject to the conditions of MIT License.\n *\n * The above copyright notice and this permission notice shall be included in\n * all copies or substantial portions of the Software.\n *\n * THE SOFTWARE IS PROVIDED \"AS IS\", WITHOUT WARRANTY OF ANY KIND, EXPRESS\n * OR IMPLIED, INCLUDING BUT NOT LIMITED TO THE WARRANTIES OF\n * MERCHANTABILITY, FITNESS FOR A PARTICULAR PURPOSE AND NONINFRINGEMENT.\n * IN NO EVENT SHALL THE AUTHORS OR COPYRIGHT HOLDERS BE LIABLE FOR ANY\n * CLAIM, DAMAGES OR OTHER LIABILITY, WHETHER IN AN ACTION OF CONTRACT,\n * OR OTHERWISE, ARISING FROM, OUT OF OR IN CONNECTION WITH THE SOFTWARE\n * OR THE USE OR OTHER DEALINGS IN THE SOFTWARE.\n *\n */\n\npragma solidity ^0.5.1;\n\n/**\n* Ethereum Elders role management library supports 256 different roles to\n* provide governance over smart contracts\n*/\nlibrary EldersRole{\n//  Error statements constant definition\n\n    //  Out of limit error statement\n    string public constant ERR_ROLE_OUT_OF_LIMIT = \"role is out of limit\";\n    //  Rejection error statement\n    string public constant ERR_ACCOUNT_NOT_ALLOWED = \"account does not have the role permission\";\n\n\n    //    Role table structure definition\n    struct RoleTable {\n        //        Maps every address to role byte representation in the role table\n        mapping (address => uint256) Role;\n        //        Maximum number of different roles allowed in the role table\n        uint8 MaximumRoles;\n    }\n\n    event Role (address, uint256);\n\n    /**\n    * Converts a role number ranging from 0:255 to a uint256 format into a\n    * role representation in 256 bit format i.e. true (1) in the role-th bit\n    * @param role uint8 - role as a number\n    */\n    function _roleNumberToBytes(uint8 role) pure internal returns (uint256) {\n        return (0x01 << uint256(role));\n    }\n\n    /**\n    * Concatenates a role to a given role format, intended to be used with combination to\n    * SetRole, for multi-role initializations\n    * @param role uint256 - role 256 bits format\n    * @param roleNumber uint8 - role number ranging from 0:255\n    */\n    function AddToRole (uint256 role, uint8 roleNumber) pure internal returns (uint256) {\n        return role | _roleNumberToBytes(roleNumber);\n    }\n\n    /**\n    * Assigns the maximum number of roles allowed to a role table\n    * @param maximumRoles uint8 - maximum role number\n    */\n    function SetMaximumRoles (RoleTable storage self, uint8 maximumRoles) internal {\n        self.MaximumRoles = maximumRoles;\n    }\n\n    /**\n    * Sets a pre-formatted uint256 role to a specific account address in the role table\n    * @param account address - the address of the account\n    * @param role uint256 - the role in the bytes representation\n    */\n    function SetRole (RoleTable storage self, address account, uint256 role) internal {\n        require(role < _roleNumberToBytes(self.MaximumRoles) || self.MaximumRoles == 0xFF, ERR_ROLE_OUT_OF_LIMIT);\n        self.Role[account] = role;\n        emit Role(account, role);\n    }\n\n    /**\n    * Adds a role number to a specific account address in the role table\n    * @param account address - the address of the account\n    * @param roleNumber uint8 - the role number ranging 0:255\n    */\n    function AddRole (RoleTable storage self, address account, uint8 roleNumber) internal {\n        uint256 roleBytes = _roleNumberToBytes(self.MaximumRoles);\n        require(roleNumber < roleBytes || self.MaximumRoles == 0xFF, ERR_ROLE_OUT_OF_LIMIT);\n        self.Role[account] = self.Role[account] | roleBytes;\n    }\n\n    /**\n    * Removes a role number from a specific account address in the role table\n    * @param account address - the address of the account\n    * @param roleNumber uint8 - the role number ranging 0:255\n    */\n    function RemoveRole (RoleTable storage self, address account, uint8 roleNumber) internal {\n        uint256 roleBytes = _roleNumberToBytes(self.MaximumRoles);\n        require(roleNumber < roleBytes || self.MaximumRoles == 0xFF, ERR_ROLE_OUT_OF_LIMIT);\n        self.Role[account] = self.Role[account] ^ roleBytes;\n        emit Role (account, roleBytes);\n    }\n\n    /**\n    * Checks if a role number exists for a specific account address in the role table\n    * @param account address - the address of the account\n    * @param roleNumber uint8 - the role number ranging 0:255\n    */\n    function RoleExists (RoleTable storage self, address account, uint8 roleNumber) view internal returns (bool) {\n        return ( self.Role[account] | _roleNumberToBytes(roleNumber) ) > 0;\n    }\n}",
  "sourcePath": "/home/muhammad/Workspace/EthereumElders/contracts/rolebased/librole.sol",
  "compiler": {
    "name": "solc",
    "version": "0.5.1+commit.c8a2cb62.Emscripten.clang"
  },
  "schemaVersion": "3.0.11",
  "updatedAt": "2019-08-18T13:06:27.321Z",
  "devdoc": {
    "methods": {}
  },
  "userdoc": {
    "methods": {},
    "notice": "Ethereum Elders role management library supports 256 different roles to provide governance over smart contracts"
  }
}